{
  "_format": "hh-sol-artifact-1",
  "contractName": "GmPortal",
  "sourceName": "contracts/GmPortal.sol",
  "abi": [
    {
      "inputs": [],
      "stateMutability": "nonpayable",
      "type": "constructor"
    },
    {
      "anonymous": false,
      "inputs": [
        {
          "indexed": true,
          "internalType": "address",
          "name": "from",
          "type": "address"
        },
        {
          "indexed": false,
          "internalType": "uint256",
          "name": "timestamp",
          "type": "uint256"
        },
        {
          "indexed": false,
          "internalType": "string",
          "name": "message",
          "type": "string"
        }
      ],
      "name": "NewGm",
      "type": "event"
    },
    {
      "inputs": [],
      "name": "getAllGms",
      "outputs": [
        {
          "components": [
            {
              "internalType": "address",
              "name": "gmer",
              "type": "address"
            },
            {
              "internalType": "string",
              "name": "message",
              "type": "string"
            },
            {
              "internalType": "uint256",
              "name": "timestamp",
              "type": "uint256"
            }
          ],
          "internalType": "struct GmPortal.Gm[]",
          "name": "",
          "type": "tuple[]"
        }
      ],
      "stateMutability": "view",
      "type": "function"
    },
    {
      "inputs": [],
      "name": "getTotalGms",
      "outputs": [
        {
          "internalType": "uint256",
          "name": "",
          "type": "uint256"
        }
      ],
      "stateMutability": "view",
      "type": "function"
    },
    {
      "inputs": [
        {
          "internalType": "string",
          "name": "_message",
          "type": "string"
        }
      ],
      "name": "gm",
      "outputs": [],
      "stateMutability": "nonpayable",
      "type": "function"
    }
  ],
  "bytecode": "0x60806040523480156200001157600080fd5b506200004160405180606001604052806023815260200162000e1f602391396200004760201b620003b11760201c565b620001db565b620000e7816040516024016200005e919062000154565b6040516020818303038152906040527f41304fac000000000000000000000000000000000000000000000000000000007bffffffffffffffffffffffffffffffffffffffffffffffffffffffff19166020820180517bffffffffffffffffffffffffffffffffffffffffffffffffffffffff8381831617835250505050620000ea60201b60201c565b50565b60008151905060006a636f6e736f6c652e6c6f679050602083016000808483855afa5050505050565b6000620001208262000178565b6200012c818562000183565b93506200013e81856020860162000194565b6200014981620001ca565b840191505092915050565b6000602082019050818103600083015262000170818462000113565b905092915050565b600081519050919050565b600082825260208201905092915050565b60005b83811015620001b457808201518184015260208101905062000197565b83811115620001c4576000848401525b50505050565b6000601f19601f8301169050919050565b610c3480620001eb6000396000f3fe608060405234801561001057600080fd5b50600436106100415760003560e01c80633a05e29e146100465780638a215be314610064578063d8686ecb14610082575b600080fd5b61004e61009e565b60405161005b919061087e565b60405180910390f35b61006c6101ef565b6040516100799190610922565b60405180910390f35b61009c600480360381019061009791906106b6565b61023a565b005b60606001805480602002602001604051908101604052809291908181526020016000905b828210156101e657838290600052602060002090600302016040518060600160405290816000820160009054906101000a900473ffffffffffffffffffffffffffffffffffffffff1673ffffffffffffffffffffffffffffffffffffffff1673ffffffffffffffffffffffffffffffffffffffff16815260200160018201805461014b90610afd565b80601f016020809104026020016040519081016040528092919081815260200182805461017790610afd565b80156101c45780601f10610199576101008083540402835291602001916101c4565b820191906000526020600020905b8154815290600101906020018083116101a757829003601f168201915b50505050508152602001600282015481525050815260200190600101906100c2565b50505050905090565b60006102326040518060400160405280601c81526020017f576520686176652025642070656f706c6520736179696e6720676d210000000081525060005461044a565b600054905090565b600160008082825461024c9190610a29565b925050819055506102926040518060400160405280600f81526020017f257320686173207361696420676d210000000000000000000000000000000000815250336104e6565b600160405180606001604052803373ffffffffffffffffffffffffffffffffffffffff16815260200183815260200142815250908060018154018082558091505060019003906000526020600020906003020160009091909190915060008201518160000160006101000a81548173ffffffffffffffffffffffffffffffffffffffff021916908373ffffffffffffffffffffffffffffffffffffffff16021790555060208201518160010190805190602001906103519291906105ab565b506040820151816002015550503373ffffffffffffffffffffffffffffffffffffffff167fee86ba231d4398fdc6bddfeaf10d67c92be43790841bf9ae08cc7c476f01294e42836040516103a692919061093d565b60405180910390a250565b610447816040516024016103c591906108a0565b6040516020818303038152906040527f41304fac000000000000000000000000000000000000000000000000000000007bffffffffffffffffffffffffffffffffffffffffffffffffffffffff19166020820180517bffffffffffffffffffffffffffffffffffffffffffffffffffffffff8381831617835250505050610582565b50565b6104e282826040516024016104609291906108f2565b6040516020818303038152906040527f9710a9d0000000000000000000000000000000000000000000000000000000007bffffffffffffffffffffffffffffffffffffffffffffffffffffffff19166020820180517bffffffffffffffffffffffffffffffffffffffffffffffffffffffff8381831617835250505050610582565b5050565b61057e82826040516024016104fc9291906108c2565b6040516020818303038152906040527f319af333000000000000000000000000000000000000000000000000000000007bffffffffffffffffffffffffffffffffffffffffffffffffffffffff19166020820180517bffffffffffffffffffffffffffffffffffffffffffffffffffffffff8381831617835250505050610582565b5050565b60008151905060006a636f6e736f6c652e6c6f679050602083016000808483855afa5050505050565b8280546105b790610afd565b90600052602060002090601f0160209004810192826105d95760008555610620565b82601f106105f257805160ff1916838001178555610620565b82800160010185558215610620579182015b8281111561061f578251825591602001919060010190610604565b5b50905061062d9190610631565b5090565b5b8082111561064a576000816000905550600101610632565b5090565b600061066161065c84610992565b61096d565b90508281526020810184848401111561067957600080fd5b610684848285610abb565b509392505050565b600082601f83011261069d57600080fd5b81356106ad84826020860161064e565b91505092915050565b6000602082840312156106c857600080fd5b600082013567ffffffffffffffff8111156106e257600080fd5b6106ee8482850161068c565b91505092915050565b60006107038383610810565b905092915050565b61071481610a7f565b82525050565b61072381610a7f565b82525050565b6000610734826109d3565b61073e81856109f6565b935083602082028501610750856109c3565b8060005b8581101561078c578484038952815161076d85826106f7565b9450610778836109e9565b925060208a01995050600181019050610754565b50829750879550505050505092915050565b60006107a9826109de565b6107b38185610a07565b93506107c3818560208601610aca565b6107cc81610bed565b840191505092915050565b60006107e2826109de565b6107ec8185610a18565b93506107fc818560208601610aca565b61080581610bed565b840191505092915050565b6000606083016000830151610828600086018261070b565b5060208301518482036020860152610840828261079e565b91505060408301516108556040860182610860565b508091505092915050565b61086981610ab1565b82525050565b61087881610ab1565b82525050565b600060208201905081810360008301526108988184610729565b905092915050565b600060208201905081810360008301526108ba81846107d7565b905092915050565b600060408201905081810360008301526108dc81856107d7565b90506108eb602083018461071a565b9392505050565b6000604082019050818103600083015261090c81856107d7565b905061091b602083018461086f565b9392505050565b6000602082019050610937600083018461086f565b92915050565b6000604082019050610952600083018561086f565b818103602083015261096481846107d7565b90509392505050565b6000610977610988565b90506109838282610b2f565b919050565b6000604051905090565b600067ffffffffffffffff8211156109ad576109ac610bbe565b5b6109b682610bed565b9050602081019050919050565b6000819050602082019050919050565b600081519050919050565b600081519050919050565b6000602082019050919050565b600082825260208201905092915050565b600082825260208201905092915050565b600082825260208201905092915050565b6000610a3482610ab1565b9150610a3f83610ab1565b9250827fffffffffffffffffffffffffffffffffffffffffffffffffffffffffffffffff03821115610a7457610a73610b60565b5b828201905092915050565b6000610a8a82610a91565b9050919050565b600073ffffffffffffffffffffffffffffffffffffffff82169050919050565b6000819050919050565b82818337600083830152505050565b60005b83811015610ae8578082015181840152602081019050610acd565b83811115610af7576000848401525b50505050565b60006002820490506001821680610b1557607f821691505b60208210811415610b2957610b28610b8f565b5b50919050565b610b3882610bed565b810181811067ffffffffffffffff82111715610b5757610b56610bbe565b5b80604052505050565b7f4e487b7100000000000000000000000000000000000000000000000000000000600052601160045260246000fd5b7f4e487b7100000000000000000000000000000000000000000000000000000000600052602260045260246000fd5b7f4e487b7100000000000000000000000000000000000000000000000000000000600052604160045260246000fd5b6000601f19601f830116905091905056fea2646970667358221220b8cb2469f858f46b670d64d7ee72a5cf564dd7349fd08234589511b893b555d064736f6c6343000804003348656c6c6f2c2049276d206120636f6e747261637420616e642049276d20736d617274",
  "linkReferences": {},
  "deployedLinkReferences": {}
}