{
  "_format": "hh-sol-artifact-1",
  "contractName": "GmPortal",
  "sourceName": "contracts/GmPortal.sol",
  "abi": [
    {
      "inputs": [],
      "stateMutability": "payable",
      "type": "constructor"
    },
    {
      "anonymous": false,
      "inputs": [
        {
          "indexed": true,
          "internalType": "address",
          "name": "from",
          "type": "address"
        },
        {
          "indexed": false,
          "internalType": "uint256",
          "name": "timestamp",
          "type": "uint256"
        },
        {
          "indexed": false,
          "internalType": "string",
          "name": "message",
          "type": "string"
        }
      ],
      "name": "NewGm",
      "type": "event"
    },
    {
      "inputs": [],
      "name": "getAllGms",
      "outputs": [
        {
          "components": [
            {
              "internalType": "address",
              "name": "gmer",
              "type": "address"
            },
            {
              "internalType": "string",
              "name": "message",
              "type": "string"
            },
            {
              "internalType": "uint256",
              "name": "timestamp",
              "type": "uint256"
            }
          ],
          "internalType": "struct GmPortal.Gm[]",
          "name": "",
          "type": "tuple[]"
        }
      ],
      "stateMutability": "view",
      "type": "function"
    },
    {
      "inputs": [],
      "name": "getTotalGms",
      "outputs": [
        {
          "internalType": "uint256",
          "name": "",
          "type": "uint256"
        }
      ],
      "stateMutability": "view",
      "type": "function"
    },
    {
      "inputs": [
        {
          "internalType": "string",
          "name": "_message",
          "type": "string"
        }
      ],
      "name": "gm",
      "outputs": [],
      "stateMutability": "nonpayable",
      "type": "function"
    },
    {
      "inputs": [
        {
          "internalType": "address",
          "name": "",
          "type": "address"
        }
      ],
      "name": "lastGmedAt",
      "outputs": [
        {
          "internalType": "uint256",
          "name": "",
          "type": "uint256"
        }
      ],
      "stateMutability": "view",
      "type": "function"
    }
  ],
  "bytecode": "0x60806040526200003360405180606001604052806023815260200162001411602391396200005b60201b620006071760201c565b60644442620000439190620001a8565b6200004f919062000245565b600181905550620002ec565b620000fb8160405160240162000072919062000168565b6040516020818303038152906040527f41304fac000000000000000000000000000000000000000000000000000000007bffffffffffffffffffffffffffffffffffffffffffffffffffffffff19166020820180517bffffffffffffffffffffffffffffffffffffffffffffffffffffffff8381831617835250505050620000fe60201b60201c565b50565b60008151905060006a636f6e736f6c652e6c6f679050602083016000808483855afa5050505050565b600062000134826200018c565b62000140818562000197565b9350620001528185602086016200020f565b6200015d81620002db565b840191505092915050565b6000602082019050818103600083015262000184818462000127565b905092915050565b600081519050919050565b600082825260208201905092915050565b6000620001b58262000205565b9150620001c28362000205565b9250827fffffffffffffffffffffffffffffffffffffffffffffffffffffffffffffffff03821115620001fa57620001f96200027d565b5b828201905092915050565b6000819050919050565b60005b838110156200022f57808201518184015260208101905062000212565b838111156200023f576000848401525b50505050565b6000620002528262000205565b91506200025f8362000205565b925082620002725762000271620002ac565b5b828206905092915050565b7f4e487b7100000000000000000000000000000000000000000000000000000000600052601160045260246000fd5b7f4e487b7100000000000000000000000000000000000000000000000000000000600052601260045260246000fd5b6000601f19601f8301169050919050565b61111580620002fc6000396000f3fe608060405234801561001057600080fd5b506004361061004c5760003560e01c80633a05e29e14610051578063797811811461006f5780638a215be31461009f578063d8686ecb146100bd575b600080fd5b6100596100d9565b6040516100669190610bb3565b60405180910390f35b61008960048036038101906100849190610921565b61022a565b6040516100969190610cb7565b60405180910390f35b6100a7610242565b6040516100b49190610cb7565b60405180910390f35b6100d760048036038101906100d2919061094a565b61028d565b005b60606002805480602002602001604051908101604052809291908181526020016000905b8282101561022157838290600052602060002090600302016040518060600160405290816000820160009054906101000a900473ffffffffffffffffffffffffffffffffffffffff1673ffffffffffffffffffffffffffffffffffffffff1673ffffffffffffffffffffffffffffffffffffffff16815260200160018201805461018690610e9d565b80601f01602080910402602001604051908101604052809291908181526020018280546101b290610e9d565b80156101ff5780601f106101d4576101008083540402835291602001916101ff565b820191906000526020600020905b8154815290600101906020018083116101e257829003601f168201915b50505050508152602001600282015481525050815260200190600101906100fd565b50505050905090565b60036020528060005260406000206000915090505481565b60006102856040518060400160405280601c81526020017f576520686176652025642070656f706c6520736179696e6720676d21000000008152506000546106a0565b600054905090565b42601e600360003373ffffffffffffffffffffffffffffffffffffffff1673ffffffffffffffffffffffffffffffffffffffff168152602001908152602001600020546102da9190610dc9565b1061031a576040517f08c379a000000000000000000000000000000000000000000000000000000000815260040161031190610c97565b60405180910390fd5b42600360003373ffffffffffffffffffffffffffffffffffffffff1673ffffffffffffffffffffffffffffffffffffffff1681526020019081526020016000208190555060016000808282546103709190610dc9565b925050819055506103b66040518060400160405280600f81526020017f257320686173207361696420676d2100000000000000000000000000000000008152503361073c565b600260405180606001604052803373ffffffffffffffffffffffffffffffffffffffff16815260200183815260200142815250908060018154018082558091505060019003906000526020600020906003020160009091909190915060008201518160000160006101000a81548173ffffffffffffffffffffffffffffffffffffffff021916908373ffffffffffffffffffffffffffffffffffffffff1602179055506020820151816001019080519060200190610475929190610801565b50604082015181600201555050606460015442446104939190610dc9565b61049d9190610dc9565b6104a79190610f00565b6001819055506032600154116105b4576000650646880c8800905047811115610505576040517f08c379a00000000000000000000000000000000000000000000000000000000081526004016104fc90610c77565b60405180910390fd5b60003373ffffffffffffffffffffffffffffffffffffffff168260405161052b90610b9e565b60006040518083038185875af1925050503d8060008114610568576040519150601f19603f3d011682016040523d82523d6000602084013e61056d565b606091505b50509050806105b1576040517f08c379a00000000000000000000000000000000000000000000000000000000081526004016105a890610c57565b60405180910390fd5b50505b3373ffffffffffffffffffffffffffffffffffffffff167fee86ba231d4398fdc6bddfeaf10d67c92be43790841bf9ae08cc7c476f01294e42836040516105fc929190610cd2565b60405180910390a250565b61069d8160405160240161061b9190610bd5565b6040516020818303038152906040527f41304fac000000000000000000000000000000000000000000000000000000007bffffffffffffffffffffffffffffffffffffffffffffffffffffffff19166020820180517bffffffffffffffffffffffffffffffffffffffffffffffffffffffff83818316178352505050506107d8565b50565b61073882826040516024016106b6929190610c27565b6040516020818303038152906040527f9710a9d0000000000000000000000000000000000000000000000000000000007bffffffffffffffffffffffffffffffffffffffffffffffffffffffff19166020820180517bffffffffffffffffffffffffffffffffffffffffffffffffffffffff83818316178352505050506107d8565b5050565b6107d48282604051602401610752929190610bf7565b6040516020818303038152906040527f319af333000000000000000000000000000000000000000000000000000000007bffffffffffffffffffffffffffffffffffffffffffffffffffffffff19166020820180517bffffffffffffffffffffffffffffffffffffffffffffffffffffffff83818316178352505050506107d8565b5050565b60008151905060006a636f6e736f6c652e6c6f679050602083016000808483855afa5050505050565b82805461080d90610e9d565b90600052602060002090601f01602090048101928261082f5760008555610876565b82601f1061084857805160ff1916838001178555610876565b82800160010185558215610876579182015b8281111561087557825182559160200191906001019061085a565b5b5090506108839190610887565b5090565b5b808211156108a0576000816000905550600101610888565b5090565b60006108b76108b284610d27565b610d02565b9050828152602081018484840111156108cf57600080fd5b6108da848285610e5b565b509392505050565b6000813590506108f1816110c8565b92915050565b600082601f83011261090857600080fd5b81356109188482602086016108a4565b91505092915050565b60006020828403121561093357600080fd5b6000610941848285016108e2565b91505092915050565b60006020828403121561095c57600080fd5b600082013567ffffffffffffffff81111561097657600080fd5b610982848285016108f7565b91505092915050565b60006109978383610b30565b905092915050565b6109a881610e1f565b82525050565b6109b781610e1f565b82525050565b60006109c882610d68565b6109d28185610d8b565b9350836020820285016109e485610d58565b8060005b85811015610a205784840389528151610a01858261098b565b9450610a0c83610d7e565b925060208a019950506001810190506109e8565b50829750879550505050505092915050565b6000610a3d82610d73565b610a478185610da7565b9350610a57818560208601610e6a565b610a6081610fed565b840191505092915050565b6000610a7682610d73565b610a808185610db8565b9350610a90818560208601610e6a565b610a9981610fed565b840191505092915050565b6000610ab1602683610db8565b9150610abc82610ffe565b604082019050919050565b6000610ad4603683610db8565b9150610adf8261104d565b604082019050919050565b6000610af7600083610d9c565b9150610b028261109c565b600082019050919050565b6000610b1a600883610db8565b9150610b258261109f565b602082019050919050565b6000606083016000830151610b48600086018261099f565b5060208301518482036020860152610b608282610a32565b9150506040830151610b756040860182610b80565b508091505092915050565b610b8981610e51565b82525050565b610b9881610e51565b82525050565b6000610ba982610aea565b9150819050919050565b60006020820190508181036000830152610bcd81846109bd565b905092915050565b60006020820190508181036000830152610bef8184610a6b565b905092915050565b60006040820190508181036000830152610c118185610a6b565b9050610c2060208301846109ae565b9392505050565b60006040820190508181036000830152610c418185610a6b565b9050610c506020830184610b8f565b9392505050565b60006020820190508181036000830152610c7081610aa4565b9050919050565b60006020820190508181036000830152610c9081610ac7565b9050919050565b60006020820190508181036000830152610cb081610b0d565b9050919050565b6000602082019050610ccc6000830184610b8f565b92915050565b6000604082019050610ce76000830185610b8f565b8181036020830152610cf98184610a6b565b90509392505050565b6000610d0c610d1d565b9050610d188282610ecf565b919050565b6000604051905090565b600067ffffffffffffffff821115610d4257610d41610fbe565b5b610d4b82610fed565b9050602081019050919050565b6000819050602082019050919050565b600081519050919050565b600081519050919050565b6000602082019050919050565b600082825260208201905092915050565b600081905092915050565b600082825260208201905092915050565b600082825260208201905092915050565b6000610dd482610e51565b9150610ddf83610e51565b9250827fffffffffffffffffffffffffffffffffffffffffffffffffffffffffffffffff03821115610e1457610e13610f31565b5b828201905092915050565b6000610e2a82610e31565b9050919050565b600073ffffffffffffffffffffffffffffffffffffffff82169050919050565b6000819050919050565b82818337600083830152505050565b60005b83811015610e88578082015181840152602081019050610e6d565b83811115610e97576000848401525b50505050565b60006002820490506001821680610eb557607f821691505b60208210811415610ec957610ec8610f8f565b5b50919050565b610ed882610fed565b810181811067ffffffffffffffff82111715610ef757610ef6610fbe565b5b80604052505050565b6000610f0b82610e51565b9150610f1683610e51565b925082610f2657610f25610f60565b5b828206905092915050565b7f4e487b7100000000000000000000000000000000000000000000000000000000600052601160045260246000fd5b7f4e487b7100000000000000000000000000000000000000000000000000000000600052601260045260246000fd5b7f4e487b7100000000000000000000000000000000000000000000000000000000600052602260045260246000fd5b7f4e487b7100000000000000000000000000000000000000000000000000000000600052604160045260246000fd5b6000601f19601f8301169050919050565b7f4661696c656420746f207769746864726177206d6f6e65792066726f6d20636f60008201527f6e74726163740000000000000000000000000000000000000000000000000000602082015250565b7f547279696e6720746f207769746864726177206d6f7265206d6f6e657920746860008201527f616e2074686520636f6e7472616374206861732e2e2e00000000000000000000602082015250565b50565b7f576169742031356d000000000000000000000000000000000000000000000000600082015250565b6110d181610e1f565b81146110dc57600080fd5b5056fea26469706673582212206e8b533fb4908f44b8ea103d91ab7680d4942b20e96bb6200259840a58b545dd64736f6c6343000804003348656c6c6f2c2049276d206120636f6e747261637420616e642049276d20736d617274",
  "linkReferences": {},
  "deployedLinkReferences": {}
}